:0400000082316B2AB4
:100008007E1480312000911E0A280B28E228CB2874
:1000180023001908FC0043307C06031D142815280A
:100028001A282100AA01AA0AFC01A90152307C065B
:10003800031D1F2820282628FF302100A200033096
:10004800A300FC014D307C06031D2B282C283028EA
:1000580003302100AA00FC014C307C06031D352822
:1000680036283D2805302100B8003030ED00FC016D
:10007800111630307C06031D4228432846282100EB
:100088002214FC0131307C06031D4B284C284F28D4
:100098002100A214FC0132307C06031D5428552887
:1000A800582821002215FC0133307C06031D5D28E9
:1000B8005E2861282100A215FC0134307C06031D4E
:1000C800662867286A2821002216FC0135307C063C
:1000D800031D6F28702873282100A216FC013630F2
:1000E8007C06031D782879287C2821002217FC012A
:1000F80037307C06031D8128822885282100A21715
:10010800FC0138307C06031D8A288B288E282100A4
:100118002314FC0139307C06031D93289428E22817
:100128002100A314FC01E2280930290203189D28A4
:100138009E28AB282908BD3E8600870123001908A0
:1001480081000130FA007A082100A907E22802306C
:10015800AA00E2282908BD3E860087012300190865
:1001680081002100BC01BC0A0530B800AA01E228C0
:100178002908BD3E86008701230019088100210057
:10018800BC01BC0A0530B800AA011116E2282100FA
:100198002A08FA00FB017B08003A0319D428E22850
:1001A8007A08003A03190C28013A03199828033AE7
:1001B8000319AE28013A0319BC28E2282000111EB1
:1001C800E628E7288F292100111EEB28EC288F2923
:1001D80073297B3023009A002100BB01BB0A8F29B9
:1001E8003A306D02031CF928FA2804296430F0001B
:1001F8000130F1000530F2009531402580318F291A
:10020800EC30F0000030F1000430F2009531402568
:1002180080318F298F293803031D132914291E299A
:10022800A030F0000130F1001730F2009531402580
:1002380080318F2902303806031D232924292E29CD
:10024800B730F0000130F1000C30F2009531402554
:1002580080318F2903303806031D332934293E297C
:100268005730F0000130F1000D30F2009531402593
:1002780080318F2904303806031D432944294E292B
:100288004730F0000130F1001030F2009531402580
:1002980080318F2905303806031D532954290E292A
:1002A800BD30F0000030F1000A30F20095314025F1
:1002B80080318F297D3023009A0004302100BB0053
:1002C8008F290D3023009A0005302100BB008F29AB
:1002D8000A3023009A002100BB0111128F293B0824
:1002E800FA00FB017B08003A03197B298F297A0859
:1002F800003A0319ED28013A0319F428033A0319BF
:100308000F29013A03195E29073A03196529013AA9
:1003180003196C298F292000911D93299429582AA3
:1003280021003203031D99299A29DF29AE29F001FA
:100338000030F1000830F20020308831022080318E
:10034800BE290430F000CB30F100203089311B2168
:100358008031BE292B08FA00FB017B08003A0319FB
:10036800B629BE297A08003A03199B29013A0319CC
:10037800A529BE29210037080319C329C429D12971
:100388002B08031DC829C929D1290130FA007A0888
:10039800AB07B901B90AB701DF2937080319D5290D
:1003A800D629DF292B080319DA29DB29DF29AB0134
:1003B800B701B501B50A02303206031DE429E52963
:1003C800562A1D2AF0010630F1002730F200543079
:1003D800883102208031392A0230F0003030F100B3
:1003E80054308731C2278031392A1130F00051301A
:1003F800F10054308731C2278031392A1530F00096
:100408003030F10054308731C2278031392A1C300E
:10041800F0008030F10054308731C2278031392A0A
:100428001230F0004130F10054308A31C622803158
:10043800392A2B08FA00FB017B08003A0319252A00
:10044800392A7A08003A0319E629013A0319F029EA
:10045800033A0319F929013A0319022A073A031939
:100468000B2A013A0319142A392A21003703031DDC
:100478003E2A3F2A462A0130FA007A08AB07B9011A
:10048800B90AB70102303706031D4B2A4C2A562AEF
:10049800AB01B7010530B8003030ED001116B501D9
:1004A800B50A91112000911191185B2A5C2A622AE1
:1004B80065301A02031C612A622A692A2100BA01DE
:1004C800BA0A20009A011C1191107E10090082318D
:1004D8006D2A0130840094308500EC3086000030AD
:1004E8008700043094310B248231A8308400943082
:1004F80085004530860001308700243094310B2474
:1005080082318530840094308500A0308600013027
:100518008700233094310B248231FC01FD01A03087
:100528008400003085002D3094310524823120303C
:100538008400013085002530943105248231C33090
:1005480084000130850020309431052482317E10EA
:1005580020008231AF2A9431112482311B302100CE
:100568009700EB016B08E800E90168082300910097
:1005780021006908230092003F302100E800680844
:1005880023009505151421006B08BD3E86008701E0
:1005980023001308810021006B08BD3E86008701F7
:1005A80033300102031CD92ADA2ADE2A0130E80096
:1005B8006808B3070130E8006808EB070A306B02E7
:1005C800031CE72AE82AB62ABD308C314A24823136
:1005D80005302100E9000F30E800F130890BF22ADC
:1005E800E80BF22AE90BF22A640021003C03031D00
:1005F800FE2AFF2A512BEA0123009518042B052B0C
:10060800002B21006A08E800E9016808230091002E
:10061800210069082300920021006A08BD3E860077
:1006280087010108230093003F302100E800680893
:1006380023009505200003108B1F232B242B252B2B
:1006480003148B132300151555309600AA30960015
:10065800951415112000031C322B332B342B8B17C8
:1006680001302100E8006808EA070A306A02031C22
:100678003E2B3F2B002BBD308C314A248231053074
:100688002100E9000F30E800F130890B492BE80B15
:10069800492BE90B492B2100BC013903031D552BBC
:1006A800562B672B05302100E9000F30E800F130A8
:1006B800890B5C2BE80B5C2BE90B5C2B2100B5014B
:1006C800B601B60AB90130088D31192582312100E9
:1006D800221C6F2B702BEA2B31303D06031D752B26
:1006E800762B972B3108031D7A2B7B2B972B6830A1
:1006F8002100E800E430890B7F2BE80B7F2B0000FA
:100708002100E001E101E10A3A08E2003D30E3009E
:10071800EC30E40001308D31F7258231FE302100C4
:10072800A205FF30A30532303D06031D9C2B9D2BEF
:10073800BA2B3108031DA12BA22BBA2B8C30E00059
:100748000030E1000C30E2000030E3000C30E4003F
:100758000130E500E601E60AE701E70A8E31DD2609
:100768008231FE302100A205FF30A30533303D065B
:10077800031DBF2BC02BD22B3108031DC42BC52B47
:10078800D22BB501B601B60AB201B20AB101B10A5B
:10079800B001B00AFE30A205FF30A30534303D0693
:1007A800031DD72BD82BEA2B3108031DDC2BDD2B9F
:1007B800EA2BB501B601B60A0230B200B101B10A9E
:1007C800B001B00AFE30A205FF30A305A21CED2B34
:1007D800EE2B5E2C31303E06031DF32BF42B0B2C35
:1007E8003108031DF82BF92B0B2CE0010230E10036
:1007F8003A08E2003D30E300EC30E40002308D318D
:10080800F7258231FD302100A205FF30A3053230E3
:100818003E06031D102C112C2E2C3108031D152CFF
:10082800162C2E2C8C30E0000030E1000C30E20059
:100838000030E3000C30E4000130E5000230E6004F
:100848000230E7008E31DD268231FD302100A2051D
:10085800FF30A30533303E06031D332C342C462CC1
:100868003108031D382C392C462CB501B601B60ABF
:10087800B201B20AB101B10A0230B000FD30A205DE
:10088800FF30A30534303E06031D4B2C4C2C5E2C48
:100898003108031D502C512C5E2CB501B601B60A47
:1008A8000230B200B101B10A0230B000FD30A20539
:1008B800FF30A305221D612C622CD22C31303F065B
:1008C800031D672C682C7F2C3108031D6C2C6D2CA4
:1008D8007F2CE0010330E1003A08E2003D30E300FC
:1008E800EC30E40004308D31F7258231FB302100F3
:1008F800A205FF30A30532303F06031D842C852C4A
:10090800A22C3108031D892C8A2CA22C8C30E000E3
:100918000030E1000C30E2000030E3000C30E4006D
:100928000130E5000430E6000330E7008E31DD26B3
:100938008231FB302100A205FF30A30533303F068A
:10094800031DA72CA82CBA2C3108031DAC2CAD2CE8
:10095800BA2CB501B601B60AB201B20AB101B10AA0
:100968000330B000FB30A205FF30A30534303F064A
:10097800031DBF2CC02CD22C3108031DC42CC52C40
:10098800D22CB501B601B60A0230B200B101B10AE3
:100998000330B000FB30A205FF30A305A21DD52C03
:1009A800D62C462D31304006031DDB2CDC2CF32CD5
:1009B8003108031DE02CE12CF32CE0010430E100A8
:1009C8003A08E2003D30E300EC30E40008308D31B5
:1009D800F7258231F7302100A205FF30A305323018
:1009E8004006031DF82CF92C162D3108031DFD2C8B
:1009F800FE2C162D8C30E0000030E1000C30E200B7
:100A08000030E3000C30E4000130E5000830E60077
:100A18000430E7008E31DD268231F7302100A2054F
:100A2800FF30A30533304006031D1B2D1C2D2E2D32
:100A38003108031D202D212D2E2DB501B601B60A32
:100A4800B201B20AB101B10A0430B000F730A20510
:100A5800FF30A30534304006031D332D342D462DB9
:100A68003108031D382D392D462DB501B601B60ABA
:100A78000230B200B101B10A0430B000F730A2056B
:100A8800FF30A305221E492D4A2DBA2D31304106CB
:100A9800031D4F2D502D672D3108031D542D552D45
:100AA800672DE0010530E1003A08E2003D30E3003F
:100AB800EC30E40010308D31F7258231EF30210021
:100AC800A205FF30A30532304106031D6C2D6D2DA4
:100AD8008A2D3108031D712D722D8A2D8C30E0006E
:100AE8000030E1000C30E2000030E3000C30E4009C
:100AF8000130E5001030E6000530E7008E31DD26D4
:100B08008231EF302100A205FF30A30533304106C2
:100B1800031D8F2D902DA22D3108031D942D952D89
:100B2800A22DB501B601B60AB201B20AB101B10AE5
:100B38000530B000EF30A205FF30A3053430410680
:100B4800031DA72DA82DBA2D3108031DAC2DAD2DE1
:100B5800BA2DB501B601B60A0230B200B101B10A28
:100B68000530B000EF30A205FF30A305A21EBD2D51
:100B7800BE2D2F2E31304206031DC32DC42DDC2D72
:100B88003108031DC82DC92DDC2DE001E00A06300F
:100B9800E1003A08E2003D30E300EC30E4000130C7
:100BA8008D31F7258231DF302100A205FF30A30502
:100BB80032304206031DE12DE22DFF2D3108031DC1
:100BC800E62DE72DFF2D8E30E0000030E1000E30DD
:100BD800E2000030E3000E30E4000130E500E601F9
:100BE800E60A0630E7008E31DD268231DF3021004B
:100BF800A205FF30A30533304206031D042E052E3F
:100C0800172E3108031D092E0A2E172EB501B6011D
:100C1800B60AB201B20AB101B10A0630B000DF303B
:100C2800A205FF30A30534304206031D1C2E1D2EDD
:100C38002F2E3108031D212E222E2F2EB501B6018D
:100C4800B60A0230B200B101B10A0630B000DF3096
:100C5800A205FF30A305221F322E332EA32E3130DA
:100C68004306031D382E392E502E3108031D3D2E04
:100C78003E2E502EE0010730E1003A08E2003D30F8
:100C8800E300EC30E40040308D31F7258231BF308D
:100C98002100A205FF30A30532304306031D552E5F
:100CA800562E732E3108031D5A2E5B2E732E8C3050
:100CB800E0000030E1000C30E2000030E3000C30CE
:100CC800E4000130E5004030E6000730E7008E31EF
:100CD800DD268231BF302100A205FF30A305333065
:100CE8004306031D782E792E8B2E3108031D7D2E89
:100CF8007E2E8B2EB501B601B60AB201B20AB10139
:100D0800B10A0730B000BF30A205FF30A305343068
:100D18004306031D902E912EA32E3108031D952EF8
:100D2800962EA32EB501B601B60A0230B200B10163
:100D3800B10A0730B000BF30A205FF30A305A21FDB
:100D4800A62EA72E152F31304406031DAC2EAD2E2E
:100D5800C42E3108031DB12EB22EC42EE001083076
:100D6800E1003A08E2003D30E300EC30E400803076
:100D78008D31F72582317F302100A205FF30A30590
:100D880032304406031DC92ECA2EE72E3108031D32
:100D9800CE2ECF2EE72E8C30E0000030E1000C3054
:100DA800E2000030E3000C30E4000130E500803060
:100DB800E6000830E7008E31DD2682317F302100E1
:100DC800A205FF30A30533304406031DEC2EED2E9B
:100DD800FD2E3108031DF12EF22EFD2EB501B601B0
:100DE800B60AB201B20A0830B0007F30A205FF305F
:100DF800A30534304406031D022F032F152F310895
:100E0800031D072F082F152FB501B601B60A0230AA
:100E1800B200B101B10A0830B0007F30A205FF303E
:100E2800A305231C182F192F872F31304506031DC2
:100E38001E2F1F2F362F3108031D232F242F362F47
:100E4800E0010930E1003A08E2003D30E300EC300F
:100E5800E40020308D31F7258231FF302100A205D2
:100E6800FE30A30532304506031D3B2F3C2F592F7A
:100E78003108031D402F412F592F8C30E0000030DE
:100E8800E1000C30E2000030E3000C30E4000130F7
:100E9800E5002030E6000930E7008E31DD2682319A
:100EA800FF302100A205FE30A30533304506031D9F
:100EB8005E2F5F2F6F2F3108031D632F642F6F2F55
:100EC800B501B601B60AB201B20A0930B000FF3066
:100ED800A205FE30A30534304506031D742F752F77
:100EE800872F3108031D792F7A2F872FB501B60177
:100EF800B60A0230B200B101B10A0930B000FF30C1
:100F0800A205FE30A305A31C8A2F8B2FF82A3130A7
:100F18004606031D902F912F9A2F3108031D952FF8
:100F2800962F9A2FFF30A205FD30A30532304606D2
:100F3800031D9F2FA02FA92F3108031DA42FA52F14
:100F4800A92FFF30A205FD30A30533304606031D47
:100F5800AE2FAF2FF82A3108031DB32FB42FF82A6C
:100F6800B501B601B60AB201B20A0A30B000FF30C4
:100F7800A205FD30A305F82A82316B2AF400E32F7D
:100F88007408240091002100AE01AE0AFD2F7008FC
:100F98002400910002302100AE00FD2F71082400CA
:100FA800910003302100AE00FD2F0430AE00240074
:100FB8001615FD2FAE019111B701B70AFD2F2100BB
:100FC8002E08F200F3017308003A0319EC2FFD2FE5
:100FD8007208003A0319C42F013A0319CB2F033AB8
:100FE8000319D22F013A0319D92F073A0319DE2F13
:060FF800FD2F08000800B7
:10100400F5002A287508240091002100AF01AF0AD9
:10101400472870082400910002302100AF004728BF
:1010240071082400910003302100AF0047287208A2
:101034002400910004302100AF0047280530AF00A0
:10104400240016154728AF019111B701B70A4728A4
:1010540021002F08F300F4017408003A031933281F
:1010640047287308003A03190428013A03190B2886
:10107400033A03191228013A03191928073A0319E4
:101084002028013A031925284728080020002D09A3
:10109400AE002B0886002C0887002E0881052D0938
:1010A400AE0027088600280887002E088105033033
:1010B4002000AE007D30890B5D28AE0B5D28033027
:1010C4002000AE007D30890B6528AE0B652820001A
:1010D4002D09AE002B0886002C0887002E088105F8
:1010E4002D08AE0027088600280887002E088104F2
:1010F400BA30890B7B28003220002808A100270879
:10110400A0002A08A3002908A2002D08A4009431F5
:1011140030248831EA3000320032890B8D280032C5
:10112400EA3000320032890B9328003220002D0966
:10113400AE002B0886002C0887002E0881052D0898
:10114400AE0027088600280887002E0881040800BE
:101154002000200821042204230424042504260456
:1011640027040319B628B7280A29B101B10AC628E9
:10117400A035A10DA20DA30DA40DA50DA60DA70DBF
:101184000130B0003008B107A71FC928CA28BA28FF
:1011940027082F02031DE82826082E02031DE8282D
:1011A40025082D02031DE82824082C02031DE82825
:1011B40023082B02031DE82822082A02031DE8281D
:1011C40021082902031DE82820082802031CEB2813
:1011D400EC28FC282008A8022108A93B2208AA3BE5
:1011E4002308AB3B2408AC3B2508AD3B2608AE3BAB
:1011F4002708AF3BA736A60CA50CA40CA30CA20C85
:10120400A10CA00C0130B102031D09290A29CA2826
:101214002808A0002908A1002A08A2002B08A3007E
:101224002C08A4002D08A5002E08A6002F08A7004E
:101234000800F50075297508240091002100AD010E
:10124400AD0A9E2970082400910002302100AD00EF
:101254009E292400961403302100AD009E297508B0
:1012640001382400910004302100AD009E2905308E
:10127400AD00240096159E2924001108F200F30104
:101284007108860087017208C03F7308C13F0630A9
:101294002100AD002400961216169E290730AD00D9
:1012A400240096159E2924001108F200F301720807
:1012B400F300F2017108860087017208810441314C
:1012C4007308810408302100AD0024009616161618
:1012D4009E290930AD00240016159E29AD019111F7
:1012E400B701B70A9E2921002D08F200F301730803
:1012F400003A03197E299E297208003A03191D2910
:10130400013A03192429033A03192B29013A031931
:101314003129073A03193929013A03193E29033AB5
:1013240003195029013A031955290F3A03196B2956
:10133400013A031970299E290800313086000030D3
:10134400870008302000B00000301E00B00BA72931
:101354002008210422042304240425042604270449
:101364000319B529B629122AB901B90AC529A03524
:10137400A10DA20DA30DA40DA50DA60DA70D013061
:10138400B0003008B907A71FC829C929B929B13540
:10139400B20DB30DB40DB50DB60DB70DB80D2708CC
:1013A4002F02031DEF2926082E02031DEF2925080D
:1013B4002D02031DEF2924082C02031DEF29230805
:1013C4002B02031DEF2922082A02031DEF292108FD
:1013D4002902031DEF2920082802031CF229F329FE
:1013E400042A2008A8022108A93B2208AA3B2308B2
:1013F400AB3B2408AC3B2508AD3B2608AE3B270895
:10140400AF3B3114A736A60CA50CA40CA30CA20C5C
:10141400A10CA00C0130B902031D112A122AC929FA
:101424003108A0003208A1003308A2003408A30048
:101434003508A4003608A5003708A6003808A70018
:1014440008002000E000520886008701403FD400D5
:10145400413FD50054088400550885001200253A00
:10146400031D352A362AAD2A520886008701013029
:10147400810741310318810A2200A001A101031050
:101484000030031801302100A600FF30A000FF3017
:10149400A1002000520886008701403FE100413F3F
:1014A400E20061088400620885001200753A031D99
:1014B4005C2A5D2AA32A5308860087010108840058
:1014C400850102308107003FD800013FD900DA01CD
:1014D400DB01DC01DD01DE01DF016108013ED40036
:1014E4000030623DD5005208860087015408C03F91
:1014F4005508C13F922A5808BA005908BB005A0837
:10150400BC005B08BD005C08BE005D08BF005E084F
:10151400C0005F08C10060088B317F238A31C52A6F
:1015240061088400620885000008D400D5015508CC
:10153400003A03199E2AA32A5408753A03197D2AEE
:10154400A32A200052088600870101308107413117
:101554000318810AC52A520886008701403FD40037
:10156400413FD50054088400550885000008D60082
:10157400D7015608A0005708A1006008A2009731BF
:1015840050278A31A32A0800F900522B7908240035
:1015940091002100AC01AC0A7E2B7008240091005C
:1015A40002302100AC007E2B24009614033021006D
:1015B400AC007E2B7908013E240091000430210008
:1015C400AC007E2B0530AC00240096157E2B240045
:1015D4001108F200F301F401F501710886000130ED
:1015E40087007208C03F7308C13F7408C23F750882
:1015F400C33F06302100AC002400961216167E2B41
:101604000730AC00240096157E2B24001108F2004C
:10161400F3017208F300F2017208F5007308F60092
:101624000030F61BFF30F700F80071088600013027
:1016340087007508810441317608810441317708B7
:10164400810441317808810408302100AC00240071
:10165400961216167E2B24001108F200F301F401F1
:10166400F501710886000130870072088104413158
:10167400730881044131740881044131750881047F
:1016840009302100AC002400961616167E2B0A3071
:10169400AC00240016157E2BAC010230B7007E2B63
:1016A40021002C08F200F3017308003A03195B2BA4
:1016B4007E2B7208003A0319C82A013A0319CF2A6B
:1016C400033A0319D62A013A0319DC2A073A031903
:1016D400E42A013A0319E92A033A0319022B013ACD
:1016E4000319072B0F3A03192D2B013A0319492B20
:1016F400033A03194E2B7E2B08002000C30021005F
:101704002108803A2000C20080304202031D8D2B44
:101714000130210020020318902B912B972B0130CC
:101724002000C6000030C7009F2B210021082000A4
:10173400C700210020082000C60022002108200044
:10174400C500220020082000C4003A08C8003B0855
:10175400C9003C08CA003D08CB003E08CC003F0845
:10176400CD004008CE004108CF001F30D00000302B
:10177400D1002300E2011D2CFF302000D007FF30F0
:10178400D13D5008C33E8600013087000A30A000D6
:10179400A101A201A301A401A501A601A701480872
:1017A400A8004908A9004A08AA004B08AB004C0845
:1017B400AC004D08AD004E08AE004F08AF008831B4
:1017C400AA208B3120002008303E8100FF30C6075C
:1017D400FF30C73DFF30C407FF30C53D0A30A000CD
:1017E400A101A201A301A401A501A601A701480822
:1017F400A8004908A9004A08AA004B08AB004C08F5
:10180400AC004D08AD004E08AE004F08AF00893162
:101814009F218B3120002008C8002108C90022081C
:10182400CA002308CB002408CC002508CD002608D4
:10183400CE002708CF002000500851040319232CA0
:10184400242C3D2C480849044A044B044C044D0400
:101854004E044F04031D2F2C302CBE2B4708803A16
:10186400C20080304202031D392C013046020318A5
:101874003C2C3D2CBE2B20005008C33EAF00450835
:10188400B1004408B000430895319E258B3108000F
:101894002000A100210886008701333001020318CB
:1018A400542C552C5A2C0C108E1021000C14612C25
:1018B4000C108E14FE30A000200821008C0520009E
:1018C400210A860087013330010203186A2C6B2C2D
:1018D400702C8C140E1121008C14772C8C100E1586
:1018E400FD30A000200821008C0520002108023EC4
:1018F40086008701333001020318812C822C872C47
:101904000C158E1221000C158E2C0C118E16FB302A
:10191400A000200821008C0520002108033E860039
:101924008701333001020318982C992C9E2C8C15B6
:101934000D1121008C15A52C8C110D15F730A0006C
:10194400200821008C0520002108043E8600870120
:10195400333001020318AF2CB02CB52C0C168D10AB
:1019640021000C16BC2C0C128D14EF30A0002008A2
:1019740021008C0520002108053E860087013330B4
:1019840001020318C62CC72CCC2C0E148D12210076
:101994000E14D32C0E108D16FE30A000200821004A
:1019A4008E0520002108063E86008701333001029F
:1019B4000318DD2CDE2CE32C0C178D1121000C17E1
:1019C400EA2C0C178D15BF30A000200821008C05CF
:1019D40020002108073E86008701333001020318E6
:1019E400F42CF52CFA2C8C170D1221008C17012DD8
:1019F4008C130D167F30A000200821008C052000D8
:101A04002108083E860087013330010203180B2D9C
:101A14000C2D112D8C160D1021008C16182D8C12E6
:101A24000D14DF30A000200821008C0508002100DF
:101A3400E000360803191F2D202D322D053020001B
:101A4400EB000F30EA00F130890B262DEA0B262D2E
:101A5400EB0B262D21009115240016142100B6014C
:101A64003503031D362D372D8D2D3203031D3B2DDC
:101A74003C2D8D2D3030CD000130CE000030CF0014
:101A84009830D0004C08D2004B08D1009431F12496
:101A94008D312100E101E20121006108303E860020
:101AA400013087000108031D582D592D602D610850
:101AB400303E8600013087004E3081000130E1075E
:101AC4000030E23D6208803A2000EA0080306A0279
:101AD400031D6F2D053021006102031C722D732D2F
:101AE4004E2D21006008303EED0022003008DD005C
:101AF4003108DE003208DF003308E0003408E1007A
:101B0400B001B101B201B301B40103302100B80046
:101B1400B501B10111163503031D912D922DF62D3A
:101B240002303206031D972D982DF62D2830CD0056
:101B34000130CE000030CF009830D000220044089D
:101B44002100D400220043082100D30022004208CF
:101B54002100D200220041082100D1009431F12457
:101B64008D312100E301E40121006308283E860051
:101B7400013087000108031DC02DC12DC82D630845
:101B8400283E8600013087004E3081000130E30793
:101B94000030E43D6408803A2000EA0080306A02A4
:101BA400031DD72D083021006302031CDA2DDB2D21
:101BB400B62D21006008303EED0022002808CD003B
:101BC4002908CE002A08CF002B08D0002C08D10009
:101BD4002D08D2002E08D3002F08D4000430210091
:101BE400B800B501B101111608002100E500600834
:101BF4002000A600210061082000A700210062083F
:101C04002000A800210063082000A9002100640826
:101C14002000AA00210065089631A7268D312100F5
:101C2400630A86000130870001082000EA00EB0106
:101C34002100630886000130870001082000EC00C1
:101C4400ED016C08ED00EC016A086C042200A200AE
:101C540020006B086D042200A30021006308033EEA
:101C640086000130870001082000EA00EB01210012
:101C74006308023E86000130870001082000EC0062
:101C8400ED016C08ED00EC016A086C042200A4006C
:101C940020006B086D042200A500C7302100CD0090
:101CA4000030CE000030CF009830D000220025084C
:101CB4002100D200220024082100D1009431F12413
:101CC4008D3139302100CD000130CE000030CF00FD
:101CD4009830D000220023082100D20022002208DC
:101CE4002100D1009431F1248D312100E601E70176
:101CF40021006608393E8600013087000108031D73
:101D0400842E852E8C2E6608393E8600013087008D
:101D14004E3081006608C73E860087010108031D16
:101D2400942E952E9B2E6608C73E860087014E3062
:101D340081000130E6070030E73D6708803A200063
:101D4400EA0080306A02031DAA2E043021006602D4
:101D5400031CAD2EAE2E7A2E210047082300B100BD
:101D6400210048082300B200210049082300B300E1
:101D740021004A082300B4002100C701C801C90199
:101D8400CA01220039082300A60022003A082300D1
:101D9400A70022003B082300A80022003C082300DF
:101DA400A9002200B901BA01BB01BC012100B8019C
:101DB400B80A111608008C302000A7000030A800D3
:101DC4000C30A9000030AA000C30AB000130AC008C
:101DD400210066082000AD00883148208E318C3007
:101DE4002000A7000030A8000C30A9000130AA0090
:101DF400210066082000AB00CC30943165248E317C
:101E04008C302000A7000030A8000C30A90001305D
:101E1400AA00210066082000AB00443094316524F8
:101E24008E3121302000EB007830EA009830890BA5
:101E3400192FEA0B192FEB0B192F00008C302000FF
:101E4400A7000030A8000C30A9000030AA000C3014
:101E5400AB000130AC00210066082000AD008831E1
:101E640048208E318C302000A7000030A8000C30B0
:101E7400A9000130AA00210066082000AB00CC3084
:101E8400943165248E318C302000A7000030A800E6
:101E94000C30A9000130AA00210066082000AB0024
:101EA400BE30943165248E312100A401A5018C300B
:101EB4002000B0000030B1000C30B2000030B3009C
:101EC4000C30B4000130B500210066082000B600D3
:101ED400953116258E312000EA00EB016A082100B5
:101EE400A40020006B082100A5008C302000B00065
:101EF4000030B1000C30B2000030B3000C30B4003C
:101F04000130B500210066082000B6009531162581
:101F14008E312000EA00EB016A08EB00EA016A084E
:101F24002100A40420006B082100A5048C302000AB
:101F3400A7000030A8000C30A9000030AA000C3023
:101F4400AB000130AC00210066082000AD008831F0
:101F540048208E3135302100CD000130CE000030D4
:101F6400CF009830D0002508D2002408D100943145
:101F7400F1248E312000ED01EE0120006D08353E84
:101F84008600013087000108031DC92FCA2FD12FF5
:101F94006D08353E8600013087004E3081000130E7
:101FA400ED070030EE3D6E08803AEA0080306A02A8
:101FB400031DDE2F04306D02031CE12FE22FBF2F1F
:101FC40021006708303EED00220035082300BD00E3
:101FD400220036082300BE00220037082300BF0079
:101FE400220038082300C0002200B501B601B70161
:0C1FF400B80102302100B80011160800EE
:102802002734303427343A34640080010131890B93
:10281200062C0034FE0012001E00FE0B0C2C0034AD
:1028220095316E2594319431182494310800220098
:102832008C018D018E01FF3021008C0080308D00D3
:10284200D9308E0023008D018C01240090018D016E
:1028520022009D0120008C018D018E0108002000C4
:102862002408A50020088600210887002508810485
:102872002208860023088700010824050319422C38
:10288200432C462CA601A60A472CA60126080800BE
:102892002000E7006408E9006308E800582C68306B
:1028A200D2006508D30067088A31232294312000C0
:1028B20068088400690885001200031D612C622CDF
:1028C200502CE301E40108002000AD00AE0128080D
:1028D200A1002708A0002A08A3002908A2002B08AB
:1028E200A4002D0801399731A72794310310200045
:1028F200AD0C0130AC002C08AE0708302E02031CD0
:10290200832C842C682C08007B34273468342734C9
:102912003A3427344E344E344E344E3427342C3429
:102922002734743427343A3427344E344E344E34F8
:102932004E3427347D347B342734543427343A34AC
:1029420027344E344E344E344E3427347D344E3494
:1029520000347B342734773427343A3427344E34E6
:102962004E344E344E344E344E344E344E3427347C
:102972007D347B3427346C3427343A3427344E3454
:102982004E344E344E344E3427347D342734313471
:10299200303427343A342000AB00AD01AE01E22CD2
:1029A2002C08A900AA012908A0002A08A1002808C9
:1029B200A20097315027943101302000AD0700303A
:1029C200AE3D2D082B07A90029088600013087009B
:1029D2000108AC002C08031DEF2CF02CD12C0800B0
:1029E200D1302100D5004E08D7004D08D600D801BD
:1029F200D901DE01DF0150082000E40021004F0868
:102A02002000E300D530E500D630943149249431DA
:102A12000230D63E86008701403F21004D078400E8
:102A2200413F4E3D8500800108002000B801B901F8
:102A32000310B80C3108A8003008A7003308AA0018
:102A42003208A9003508AC003408AB003608AD00E6
:102A52009531D3259531003A0319302D312D332D7F
:102A62002000B81701302000B7003708B907083036
:102A72003902031C3D2D3E2D192D380808007D0812
:102A8200031D442D452D562D7D08F300F4017308D6
:102A9200700786007408713D8700010823009A00C0
:102AA2000130F3007308FD076D2D7D0803195A2DBF
:102AB2005B2D622D72087D020318602D612D622D3F
:102AC200452D72087D02031C672D682D6D2DFD01B9
:102AD20021003B08013EBB00080070302100990034
:102AE200980122009601E0308B00083023009F00FD
:102AF20044309B0090309D0024309E0021009116AE
:102B020030302000980001309C00210091142400F4
:102B120094010830950096014F309200951268306A
:102B22002000A000E430890B942DA00B942D00000E
:102B3200240095162100911108002000B700B11B56
:102B4200A32DA42DA92D3108B6003008B500AB2D58
:102B5200B501B601B301B401BD2D20302000A000A3
:102B62000030A1003708A20097315027953101307B
:102B72002000B3070030B43D3408803AB200360872
:102B8200803A3202031DC72D35083302031CCA2DB9
:102B9200CB2DAE2D20003708A8002F089431CC246D
:102BA2009531080020002D09AE002B0886002C0864
:102BB20087002E0881052D09AE0027088600280807
:102BC20087002E0881051030890BE52D20002D0984
:102BD200AE002B0886002C0887002E0881052D08E0
:102BE200AE0027088600280887002E0881041830C6
:102BF200890BF92D20002808A1002708A0002A0827
:102C0200A3002908A2002D08A40094313024953194
:102C12002000AF009230890B0C2E003220002F08CA
:102C220008002000A2002008031D182E192E362E9F
:102C32002209A100210821008C0520002209A100FF
:102C420021088C05BC302000A1000130890B272E01
:102C5200A10B272E003220002208A100210821000A
:102C62008C045030890B332E522E2209A1002108E8
:102C720021008E0520002209A10021088E05BC300A
:102C82002000A1000130890B442EA10B442E0032FA
:102C920020002208A100210821008E045030890B57
:102CA200502E08002000A400A3012408A10021083E
:102CB20021008C042000A5012008031D612E622E34
:102CC200852E0C0824050319672E682E622E9A01A0
:102CD2001C150C082405031D6F2E702E6A2E1C1164
:102CE20051301A02031C762E772E9B2E0130A10042
:102CF2002508073C890A7E2EA135890B7D2E2108E5
:102D0200A2002208A3049B2E0E08240503198A2E72
:102D12008B2E852E9A011C150E082405031D922E5A
:102D2200932E8D2E1C1151301A02031C992E9A2EAD
:102D32009B2E772E0130A1002108A507083025021D
:102D4200031CA42EA52E5D2E230808002000AB0034
:102D52002608A0002B08963112269631200026085C
:102D6200A0002808A1002B089631FB2696312100ED
:102D7200A8002808031DBE2EBF2EC12E1116FA2E42
:102D8200200029088600013087002608A0002B08B1
:102D920096315326963181002000290A860001309F
:102DA20087002608A0002B08963153269631810011
:102DB20020002908023E8600013087002608A00074
:102DC2002B08963153269631810020002908033EB4
:102DD2008600013087002608A0002B089631532672
:102DE2009631810020002A0A860087012708303E9A
:102DF200810008002000A200A1019A011C152008F0
:102E0200031D042F052F2C2F0C082205031D0A2F4A
:102E12000B2F102F210803190F2F102F052F210818
:102E22000319142F152F172F00304F2F9A010C085A
:102E3200220503191D2F1E2F232F21080319222FCC
:102E4200232F182F21080319272F282F292F152F59
:102E52001C1101304F2F0E082205031D312F322F76
:102E6200372F21080319362F372F2C2F210803194A
:102E72003B2F3C2F3D2F152F9A010E0822050319D7
:102E8200432F442F492F21080319482F492F3E2F42
:102E9200210803194D2F4E2F292F152F080020002E
:102EA20022080319552F562F5B2F2208031D5A2F74
:102EB2005B2F602F20088731FE279731A62F22082B
:102EC200083E86008701160001040319692F6A2F44
:102ED200882F2208083E86008701403FA300413F19
:102EE200A4002208023E86008701403FA500413F20
:102EF200A6002608803AA7002408803A2702031D6C
:102F0200842F230825020318872F882FA62F20003D
:102F12002208023E86008701220884008501403F84
:102F22000007A3000131413F003DA40023088600B1
:102F320024088700200881002208023E86008701BB
:102F42000130810741310318810A08002000A600E0
:102F520026080319AD2FAE2FD72F2409A50022086A
:102F6200860023088700250881052409A50020087A
:102F7200860021088700250881051030890BBF2FA4
:102F820020002409A50022088600230887002508BE
:102F920081052408A500200886002108870025084D
:102FA2008104AA30890BD32F0032FF2F2409A500F8
:102FB2002208860023088700250881052409A50028
:102FC200200886002108870025088105A030890B8A
:102FD200E82F20002409A500220886002308870084
:102FE200250881052408A5002008860021088700FD
:102FF200250881041A30890BFC2F00320800253481
:0430020075340034ED
:020000040001F9
:08000000FF3FFF3FFF3FFF3F00
:04000E00FC39FF3F7B
:00000001FF
