:040000008231592AC6
:1000060008007E1480312000911E0A280B28E02863
:10001600C92823001908FC0043307C06031D142858
:1000260015281A282100AA01AA0AFC01A9015230A2
:100036007C06031D1F2820282628FF302100A20049
:100046000330A300FC014D307C06031D2B282C2811
:10005600302803302100AA00FC014C307C06031D29
:10006600352836283D2805302100B8003030ED000F
:10007600FC01111630307C06031D42284328462811
:1000860021002214FC0131307C06031D4B284C282C
:100096004F282100A214FC0132307C06031D54288F
:1000A6005528582821002215FC0133307C06031DF3
:1000B6005D285E2861282100A215FC0134307C06EB
:1000C600031D662867286A2821002216FC013530A0
:1000D6007C06031D6F28702873282100A216FC01D8
:1000E60036307C06031D782879287C2821002217C3
:1000F600FC0137307C06031D8128822885282100D3
:10010600A217FC0138307C06031D8A288B288E280E
:1001160021002314FC0139307C06031D9328942802
:10012600E0282100A314FC01E02809302902031865
:100136009D289E28AB282908BD3E860087012300FE
:10014600190881000130FA007A082100A907E02881
:100156000230AA00E0282908BD3E86008701230058
:10016600190881002100BC01BC0AAA01E02829085F
:10017600BD3E860087012300190881002100BC01CD
:10018600BC0A0530B800AA011116E02821002A0889
:10019600FA00FB017B08003A0319D228E0287A0806
:1001A600003A03190C28013A03199828033A03194F
:1001B600AE28013A0319BA28E0282000111EE428C7
:1001C600E5287D292100111EE928EA287D296129D3
:1001D6007B3023009A002100BB01BB0A7D29EC304D
:1001E600F0000030F1000430F20095316E258031C8
:1001F6007D293803031D002901290B29C030F00091
:100206000130F1001730F20095316E2580317D29DD
:1002160002303806031D102911291B293F30F00032
:100226000130F1000C30F20095316E2580317D29C8
:1002360003303806031D202921292B293230F000EE
:100246000130F1000D30F20095316E2580317D29A7
:1002560004303806031D302931293B292230F000AD
:100266000130F1001030F20095316E2580317D2984
:1002760005303806031D402941294B29BD30F000C1
:100286000030F1000A30F20095316E2580317D296B
:100296007D297D3023009A0004302100BB007D2992
:1002A6000D3023009A0005302100BB007D290A305D
:1002B60023009A002100BB0111127D293B08FA0098
:1002C600FB017B08003A031969297D297A08003A5F
:1002D6000319EB28013A0319F228033A0319FC28FB
:1002E600013A03194C29073A03195329013A03190C
:1002F6005A297D292000911D81298229462A21001B
:100306003203031D87298829CD299C29F001003055
:10031600F1000830F20020309631BD268031AC293C
:100326000430F000CB30F100203089319921803142
:10033600AC292B08FA00FB017B08003A0319A42913
:10034600AC297A08003A03198929013A0319932935
:10035600AC29210037080319B129B229BF292B0876
:10036600031DB629B729BF290130FA007A08AB0761
:10037600B901B90AB701CD2937080319C329C42918
:10038600CD292B080319C829C929CD29AB01B701E5
:10039600B501B50A02303206031DD229D329442AF3
:1003A6000B2AF0018630F1002530F20054309631E8
:1003B600BD268031272A0230F0003030F10054305B
:1003C600963101268031272A1130F0005130F10094
:1003D6005430963101268031272A1530F00030300E
:1003E600F1005430963101268031272A1C30F00066
:1003F6008030F1005430963101268031272A1230A0
:10040600F0006C30F10054308A31C0228031272A46
:100416002B08FA00FB017B08003A0319132A272A46
:100426007A08003A0319D429013A0319DE29033A56
:100436000319E729013A0319F929073A0319022A88
:100446000D3A0319F029272A21003703031D2C2A08
:100456002D2A342A0130FA007A08AB07B901B90A05
:10046600B70102303706031D392A3A2A442AAB015E
:10047600B7010530B8003030ED001116B501B50AE8
:100486009111200091119118492A4A2A502A653063
:100496001A02031C4F2A502A572A2100BA01BA0A07
:1004A60020009A011C1191107E10090082315B2AEE
:1004B600FC30840087308500EC30860000308700F1
:1004C60004308731F6278231433084009530850029
:1004D60020308600013087002B308731F6278231A5
:1004E6004B30840094308500C03086000130870090
:1004F60017308731F6278231FC01FD01A0308400D8
:10050600003085002D308831102082314B30840038
:10051600013085002530883110208231A0308400DA
:100526000130850020308831102082317E10200075
:1005360082319D2A8731EF2782311B3021009700B7
:10054600EB016B08E800E90168082300910021002F
:100556006908230092003F302100E8006808230064
:100566009505151421006B08BD3E86008701230002
:100576001308810021006B08BD3E860087013330D9
:100586000102031CC72AC82ACC2A0130E8006808E1
:10059600B3070130E8006808EB070A306B02031C5A
:1005A600D52AD62AA42ABD308C314424823105307E
:1005B6002100E9000F30E800F130890BE02AE80B52
:1005C600E02AE90BE02A640021003C03031DEC2A23
:1005D600ED2A3F2BEA0123009518F22AF32AEE2A88
:1005E60021006A08E800E90168082300910021005B
:1005F60069082300920021006A08BD3E8600870133
:100606000108230093003F302100E800680823001A
:100616009505200003108B1F112B122B132B03148F
:100626008B132300151555309600AA3096009514A5
:1006360015112000031C202B212B222B8B17013098
:100646002100E8006808EA070A306A02031C2C2B1E
:100656002D2BEE2ABD308C31442482310530210009
:10066600E9000F30E800F130890B372BE80B372B08
:10067600E90B372B2100BC013903031D432B442B07
:10068600482BB501B601B60AB90130088D312125CE
:1006960082312100221C502B512BCB2B31303D06B1
:1006A600031D562B572B782B3108031D5B2B5C2B18
:1006B600782B68302100E800E430890B602BE80BCA
:1006C600602B00002100E001E101E10A3A08E200A6
:1006D6006830E300EC30E40001308D31FF258231D3
:1006E600FE302100A205FF30A30532303D06031D72
:1006F6007D2B7E2B9B2B3108031D822B832B9B2B63
:100706008C30E0000030E1000C30E2000030E30005
:100716000C30E4000130E500E601E60AE701E70AED
:100726008E31E5268231FE302100A205FF30A30579
:1007360033303D06031DA02BA12BB32B3108031D1F
:10074600A52BA62BB32BB501B601B60AB201B20A88
:10075600B101B10AB001B00AFE30A205FF30A3050F
:1007660034303D06031DB82BB92BCB2B3108031DA6
:10077600BD2BBE2BCB2BB501B601B60A0230B2009B
:10078600B101B10AB001B00AFE30A205FF30A305DF
:10079600A21CCE2BCF2B3F2C31303E06031DD42B73
:1007A600D52BEC2B3108031DD92BDA2BEC2BE001D2
:1007B6000230E1003A08E2006830E300EC30E40081
:1007C60002308D31FF258231FD302100A205FF3038
:1007D600A30532303E06031DF12BF22B0F2C3108F8
:1007E600031DF62BF72B0F2C8C30E0000030E100B8
:1007F6000C30E2000030E3000C30E4000130E5008C
:100806000230E6000230E7008E31E5268231FD3007
:100816002100A205FF30A30533303E06031D142C2C
:10082600152C272C3108031D192C1A2C272CB50141
:10083600B601B60AB201B20AB101B10A0230B0007D
:10084600FD30A205FF30A30534303E06031D2C2CD7
:100856002D2C3F2C3108031D312C322C3F2CB50199
:10086600B601B60A0230B200B101B10A0230B000D8
:10087600FD30A205FF30A305221D422C432CB32CCC
:1008860031303F06031D482C492C602C3108031DCE
:100896004D2C4E2C602CE0010330E1003A08E200BA
:1008A6006830E300EC30E40004308D31FF258231FE
:1008B600FB302100A205FF30A30532303F06031DA1
:1008C600652C662C832C3108031D6A2C6B2C832C1B
:1008D6008C30E0000030E1000C30E2000030E30034
:1008E6000C30E4000130E5000430E6000330E70098
:1008F6008E31E5268231FB302100A205FF30A305AB
:1009060033303F06031D882C892C9B2C3108031D90
:100916008D2C8E2C9B2CB501B601B60AB201B20AFB
:10092600B101B10A0330B000FB30A205FF30A305C8
:1009360034303F06031DA02CA12CB32C3108031D17
:10094600A52CA62CB32CB501B601B60A0230B2000E
:10095600B101B10A0330B000FB30A205FF30A30598
:10096600A21DB62CB72C272D31304006031DBC2CFA
:10097600BD2CD42C3108031DC12CC22CD42CE00173
:100986000430E1003A08E2006830E300EC30E400AD
:1009960008308D31FF258231F7302100A205FF3066
:1009A600A30532304006031DD92CDA2CF72C31086A
:1009B600031DDE2CDF2CF72C8C30E0000030E1002C
:1009C6000C30E2000030E3000C30E4000130E500BA
:1009D6000830E6000430E7008E31E5268231F73034
:1009E6002100A205FF30A30533304006031DFC2C71
:1009F600FD2C0F2D3108031D012D022D0F2DB501E4
:100A0600B601B60AB201B20AB101B10A0430B000A9
:100A1600FB30A205FF30A30534304006031D142D1C
:100A2600152D272D3108031D192D1A2D272DB5013A
:100A3600B601B60A0230B200B101B10A0430B00004
:100A4600FB30A205FF30A305221E2A2D2B2D9B2D40
:100A560031304106031D302D312D482D3108031D3F
:100A6600352D362D482DE0010530E1003A08E2002B
:100A76006830E300EC30E40010308D31FF25823120
:100A8600EF302100A205FF30A30532304106031DD9
:100A96004D2D4E2D6B2D3108031D522D532D6B2DD3
:100AA6008C30E0000030E1000C30E2000030E30062
:100AB6000C30E4000130E5001030E6000530E700B8
:100AC6008E31E5268231EF302100A205FF30A305E5
:100AD60033304106031D702D712D832D3108031D02
:100AE600752D762D832DB501B601B60AB201B20A6F
:100AF600B101B10A0530B000EF30A205FF30A30501
:100B060034304106031D882D892D9B2D3108031D88
:100B16008D2D8E2D9B2DB501B601B60A0230B20081
:100B2600B101B10A0530B000EF30A205FF30A305D0
:100B3600A21E9E2D9F2D102E31304206031DA42D80
:100B4600A52DBD2D3108031DA92DAA2DBD2DE00112
:100B5600E00A0630E1003A08E2006830E300EC30D3
:100B6600E40001308D31FF258231DF302100A205FE
:100B7600FF30A30532304206031DC22DC32DE02DE2
:100B86003108031DC72DC82DE02D8E30E000003042
:100B9600E1000E30E2000030E3000E30E4000130E8
:100BA600E500E601E60A0630E7008E31E5268231E9
:100BB600DF302100A205FF30A30533304206031DB6
:100BC600E52DE62DF82D3108031DEA2DEB2DF82D28
:100BD600B501B601B60AB201B20AB101B10A0630D0
:100BE600B000DF30A205FF30A30534304206031DF6
:100BF600FD2DFE2D102E3108031D022E032E102E64
:100C0600B501B601B60A0230B200B101B10A06302A
:100C1600B000DF30A205FF30A305221F132E142ECD
:100C2600842E31304306031D192E1A2E312E31081B
:100C3600031D1E2E1F2E312EE0010730E1003A085B
:100C4600E2006830E300EC30E40040308D31FF25EF
:100C56008231BF302100A205FF30A30532304306A2
:100C6600031D362E372E542E3108031D3B2E3C2EE7
:100C7600542E8C30E0000030E1000C30E2000030F1
:100C8600E3000C30E4000130E5004030E6000730B8
:100C9600E7008E31E5268231BF302100A205FF3004
:100CA600A30533304306031D592E5A2E6C2E3108E8
:100CB600031D5E2E5F2E6C2EB501B601B60AB2017B
:100CC600B20AB101B10A0730B000BF30A205FF3049
:100CD600A30534304306031D712E722E842E31086F
:100CE600031D762E772E842EB501B601B60A023084
:100CF600B200B101B10A0730B000BF30A205FF3023
:100D0600A305A21F872E882EF62E31304406031D1A
:100D16008D2E8E2EA52E3108031D922E932EA52ED6
:100D2600E0010830E1003A08E2006830E300EC3008
:100D3600E40080308D31FF2582317F302100A2050D
:100D4600FF30A30532304406031DAA2EAB2EC82E53
:100D56003108031DAF2EB02EC82E8C30E0000030B7
:100D6600E1000C30E2000030E3000C30E40001301A
:100D7600E5008030E6000730E7008E31E526823157
:100D86007F302100A205FF30A30533304406031D42
:100D9600CD2ECE2EDE2E3108031DD22ED32EDE2EE4
:100DA600B501B601B60AB201B20A0830B0007F300A
:100DB600A205FF30A30534304406031DE32EE42EBE
:100DC600F62E3108031DE82EE92EF62EB501B601E2
:100DD600B60A0230B200B101B10A0830B0007F3065
:100DE600A205FF30A305231CF92EFA2EE62A313080
:100DF6004506031DFF2E002F172F3108031D042F54
:100E0600052F172FE0010930E1003A08E2006830AB
:100E1600E300EC30E40020308D31FF258231FF30D5
:100E26002100A205FE30A30532304506031D1C2F06
:100E36001D2F3A2F3108031D212F222F3A2F8C30D8
:100E4600E0000030E1000C30E2000030E3000C303E
:100E5600E4000130E5002030E6000930E7008E317D
:100E6600E5268231FF302100A205FE30A30533308E
:100E76004506031D3F2F402F502F3108031D442FD9
:100E8600452F502FB501B601B60AB201B20A093094
:100E9600B000FF30A205FE30A30534304506031D21
:100EA600552F562FE62A3108031D5A2F5B2FE62AA7
:100EB600B501B601B60A0230B200B101B10A093075
:100EC600B000FF30A205FE30A305E62A8231592A7A
:100ED600313086000030870008302000B000003036
:100EE6001E00B00B732F20082104220423042404BF
:100EF6002504260427040319812F822FDE2FB9012A
:100F0600B90A912FA035A10DA20DA30DA40DA50D13
:100F1600A60DA70D0130B0003008B907A71F942F02
:100F2600952F852FB135B20DB30DB40DB50DB60D98
:100F3600B70DB80D27082F02031DBB2F26082E025A
:100F4600031DBB2F25082D02031DBB2F24082C02D1
:100F5600031DBB2F23082B02031DBB2F22082A02C9
:100F6600031DBB2F21082902031DBB2F20082802C1
:100F7600031CBE2FBF2FD02F2008A8022108A93B93
:100F86002208AA3B2308AB3B2408AC3B2508AD3B13
:100F96002608AE3B2708AF3B3114A736A60CA50C96
:100FA600A40CA30CA20CA10CA00C0130B902031DC9
:100FB600DD2FDE2F952F3108A0003208A10033085F
:100FC600A2003408A3003508A4003608A500370897
:100FD600A6003808A700080095319C258731943172
:100FE600622487310800FE0012001E00FE0BF72F58
:0A0FF60000342734303427343A3435
:10102000640080010131890B11280034200022085E
:1010300003191B281C2821282208031D20282128E9
:10104000262820088031032088316C282208083E99
:10105000860087011600010403192F2830284E2826
:101060002208083E86008701403FA300413FA400BC
:101070002208023E86008701403FA500413FA600AE
:101080002608803AA7002408803A2702031D4A2830
:101090002308250203184D284E286C28200022081A
:1010A000023E86008701220884008501403F000738
:1010B000A3000131413F003DA4002308860024081D
:1010C0008700200881002208023E86008701013047
:1010D000810741310318810A08002000A600260874
:1010E0000319732874289D282409A5002208860066
:1010F00023088700250881052409A500200886000B
:1011000021088700250881051030890B85282000DB
:101110002409A500220886002308870025088105E8
:101120002408A500200886002108870025088104DE
:10113000AA30890B99280032C5282409A500220865
:10114000860023088700250881052409A5002008BA
:1011500086002108870025088105A030890BAE286C
:1011600020002409A50022088600230887002508FE
:1011700081052408A500200886002108870025088D
:1011800081041A30890BC2280032080020002D0982
:10119000AE002B0886002C0887002E0881052D093B
:1011A000AE0027088600280887002E088105033036
:1011B0002000AE007D30890BDB28AE0BDB2803302E
:1011C0002000AE007D30890BE328AE0BE328200021
:1011D0002D09AE002B0886002C0887002E088105FB
:1011E0002D08AE0027088600280887002E088104F5
:1011F000BA30890BF928003220002808A1002708FE
:10120000A0002A08A3002908A2002D08A4009431F8
:101210007A248831EA3000320032890B0B290032FF
:10122000EA3000320032890B1129003220002D09EA
:10123000AE002B0886002C0887002E0881052D089B
:10124000AE0027088600280887002E0881040800C1
:101250002000200821042204230424042504260459
:1012600027040319342935298829B101B10A4429F1
:10127000A035A10DA20DA30DA40DA50DA60DA70DC2
:101280000130B0003008B107A71F47294829382985
:1012900027082F02031D662926082E02031D662932
:1012A00025082D02031D662924082C02031D66292A
:1012B00023082B02031D662922082A02031D662922
:1012C00021082902031D662920082802031C692918
:1012D0006A297A292008A8022108A93B2208AA3BEA
:1012E0002308AB3B2408AC3B2508AD3B2608AE3BAE
:1012F0002708AF3BA736A60CA50CA40CA30CA20C88
:10130000A10CA00C0130B102031D872988294829AE
:101310002808A0002908A1002A08A2002B08A30081
:101320002C08A4002D08A5002E08A6002F08A70051
:101330000800F500F3297508240091002100AD0193
:10134000AD0A1C2A70082400910002302100AD0073
:101350001C2A2400961403302100AD001C2A7508B5
:1013600001382400910004302100AD001C2A053012
:10137000AD00240096151C2A24001108F200F30188
:101380007108860087017208C03F7308C13F0630AC
:101390002100AD002400961216161C2A0730AD005D
:1013A000240096151C2A24001108F200F30172088B
:1013B000F300F2017108860087017208810441314F
:1013C0007308810408302100AD002400961616161B
:1013D0001C2A0930AD00240016151C2AAD019111FC
:1013E000B701B70A1C2A21002D08F200F301730887
:1013F000003A0319FC291C2A7208003A03199B2998
:10140000013A0319A229033A0319A929013A031938
:10141000AF29073A0319B729013A0319BC29033A3E
:101420000319CE29013A0319D3290F3A0319E929DF
:10143000013A0319EE291C2A08002000E000520896
:1014400086008701403FD400413FD5005408840006
:10145000550885001200253A031D2F2A302AA72A95
:101460005208860087010130810741310318810A43
:101470002200CB01CC010310003003180130210001
:10148000A600FF30A000FF30A10020005208860017
:101490008701403FE100413FE200610884006208AB
:1014A00085001200753A031D562A572A9D2A5308B3
:1014B0008600870101088400850102308107003F12
:1014C000D800013FD900DA01DB01DC01DD01DE01DA
:1014D000DF016108013ED4000030623DD5005208B2
:1014E000860087015408C03F5508C13F8C2A580820
:1014F000BA005908BB005A08BC005B08BD005C0874
:10150000BE005D08BF005E08C0005F08C100600843
:101510008B3179238A31BF2A6108840062088500F3
:101520000008D400D5015508003A0319982A9D2ACD
:101530005408753A0319772A9D2A2000520886001C
:1015400087010130810741310318810ABF2A5208FF
:1015500086008701403FD400413FD50054088400F5
:10156000550885000008D600D7015608A000570886
:10157000A1006008A200883116208A319D2A080047
:10158000F9004C2B7908240091002100AC01AC0A31
:10159000782B70082400910002302100AC00782BD9
:1015A0002400961403302100AC00782B7908013E0A
:1015B0002400910004302100AC00782B0530AC00F1
:1015C00024009615782B24001108F200F301F40191
:1015D000F50171088600013087007208C03F73086A
:1015E000C13F7408C23F7508C33F06302100AC00FC
:1015F000240096121616782B0730AC00240096159E
:10160000782B24001108F200F3017208F300F201B4
:101610007208F5007308F6000030F61BFF30F70083
:10162000F800710886000130870075088104413197
:1016300076088104413177088104413178088104BA
:1016400008302100AC00240096121616782B2400D6
:101650001108F200F301F401F50171088600013070
:101660008700720881044131730881044131740894
:10167000810441317508810409302100AC00240047
:1016800096161616782B0A30AC0024001615782B07
:10169000AC010230B700782B21002C08F200F301D6
:1016A0007308003A0319552B782B7208003A031976
:1016B000C22A013A0319C92A033A0319D02A013A66
:1016C0000319D62A073A0319DE2A013A0319E32A35
:1016D000033A0319FC2A013A0319012B0F3A0319A3
:1016E000272B013A0319432B033A0319482B782B74
:1016F00008002000C30021002108803A2000C20019
:1017000080304202031D872B013021002002031884
:101710008A2B8B2B912B01302000C6000030C70094
:10172000992B210021082000C7002100200820005B
:10173000C60022004C082000C50022004B082000F3
:10174000C4003A08C8003B08C9003C08CA003D086C
:10175000CB003E08CC003F08CD004008CE00410839
:10176000CF001F30D0000030D1002300BF01172C64
:10177000FF302000D007FF30D13D5008A03E86004A
:10178000013087000A30A000A101A201A301A40139
:10179000A501A601A7014808A8004908A9004A0810
:1017A000AA004B08AB004C08AC004D08AD004E0839
:1017B000AE004F08AF00893128218B31200020086E
:1017C000303E8100FF30C607FF30C73DFF30C40701
:1017D000FF30C53D0A30A000A101A201A301A40170
:1017E000A501A601A7014808A8004908A9004A08C0
:1017F000AA004B08AB004C08AC004D08AD004E08E9
:10180000AE004F08AF0087316B278B3120002008D6
:10181000C8002108C9002208CA002308CB002408F8
:10182000CC002508CD002608CE002708CF002000D8
:101830005008510403191D2C1E2C372C480849044C
:101840004A044B044C044D044E044F04031D292C40
:101850002A2CB82B4708803AC20080304202031D70
:10186000332C013046020318362C372CB82B2000BD
:101870005008A03EAF004508B1004408B00043083E
:101880009531CC258B3108002000A100210886006D
:1018900087013330010203184E2C4F2C542C0C10AE
:1018A0008E1021000C145B2C0C108E14FE30A00046
:1018B000200821008C052000210A86008701333092
:1018C00001020318642C652C6A2C8C140E11210063
:1018D0008C14712C8C100E15FD30A00020082100F6
:1018E0008C0520002108023E86008701333001026A
:1018F00003187B2C7C2C812C0C158E1221000C15CE
:10190000882C0C118E16FB30A000200821008C05BD
:1019100020002108033E86008701333001020318AE
:10192000922C932C982C8C150D1121008C159F2C2A
:101930008C110D15F730A000200821008C05200027
:101940002108043E86008701333001020318A92CC8
:10195000AA2CAF2C0C168D1021000C16B62C0C12D4
:101960008D14EF30A000200821008C0520002108F4
:10197000053E86008701333001020318C02CC12CBC
:10198000C62C0E148D1221000E14CD2C0E108D16A7
:10199000FE30A000200821008E0520002108063E10
:1019A00086008701333001020318D72CD82CDD2C98
:1019B0000C178D1121000C17E42C0C178D15BF305E
:1019C000A000200821008C0520002108073E860089
:1019D0008701333001020318EE2CEF2CF42C8C1706
:1019E0000D1221008C17FB2C8C130D167F30A000DC
:1019F000200821008C0520002108083E8600870170
:101A0000333001020318052D062D0B2D8C160D10F9
:101A100021008C16122D8C120D14DF30A00020082E
:101A200021008C0520002108093E86008701333003
:101A3000010203181C2D1D2D202D8D1721008D173F
:101A400008002100E00036080319272D282D3A2D23
:101A500005302000EB000F30EA00F130890B2E2D0D
:101A6000EA0B2E2DEB0B2E2D2100911524001614C0
:101A70002100B6013503031D3E2D3F2D952D320368
:101A8000031D432D442D952D5B30CD000130CE003C
:101A90000030CF009830D0004C08D2004B08D10065
:101AA0009431F4248D312100E101E201210061082B
:101AB0005B3E8600013087000108031D602D612D0B
:101AC000682D61085B3E8600013087004E30810042
:101AD0000130E1070030E23D6208803A2000EA0070
:101AE00080306A02031D772D053021006102031C3E
:101AF0007A2D7B2D562D21006008303EED0022000E
:101B00005B08B8005C08B9005D08BA005E08BB005D
:101B10005F08BC00DB01DC01DD01DE01DF01033019
:101B20002100B800B501B10111163503031D992D2F
:101B30009A2DFE2D02303206031D9F2DA02DFE2D65
:101B40005330CD000130CE000030CF009830D000AF
:101B500022006F082100D40022006E082100D3006B
:101B600022006D082100D20022006C082100D10063
:101B70009431F4248D312100E301E4012100630854
:101B8000533E8600013087000108031DC82DC92D72
:101B9000D02D6308533E8600013087004E3081000F
:101BA0000130E3070030E43D6408803A2000EA0099
:101BB00080306A02031DDF2D083021006302031C00
:101BC000E22DE32DBE2D21006008303EED00220005
:101BD0005308A8005408A9005508AA005608AB00ED
:101BE0005708AC005808AD005908AE005A08AF00BD
:101BF00004302100B800B501B10111160800210020
:101C0000E50060082000A600210061082000A70070
:101C1000210062082000A800210063082000A9001C
:101C2000210064082000AA00210065089731572789
:101C30008D312100630A86000130870001082000F1
:101C4000EA00EB01210063088600013087000108EB
:101C50002000EC00ED016C08ED00EC016A086C045A
:101C60002200CD0020006B086D042200CE00210070
:101C70006308033E86000130870001082000EA0067
:101C8000EB0121006308023E860001308700010855
:101C90002000EC00ED016C08ED00EC016A086C041A
:101CA0002200CF0020006B086D042200D000C73056
:101CB0002100CD000030CE000030CF009830D000A1
:101CC000220050082100D20022004F082100D1003C
:101CD0009431F4248D3164302100CD000130CE00E8
:101CE0000030CF009830D00022004E082100D200F2
:101CF00022004D082100D1009431F4248D312100BF
:101D0000E601E70121006608643E86000130870095
:101D10000108031D8C2E8D2E942E6608643E8600CD
:101D2000013087004E3081006608C73E860087017B
:101D30000108031D9C2E9D2EA32E6608C73E86001B
:101D400087014E3081000130E6070030E73D67082B
:101D5000803A2000EA0080306A02031DB22E04306F
:101D600021006602031CB52EB62E822E21004708E4
:101D70002300D100210048082300D2002100490897
:101D80002300D30021004A082300D4002200640865
:101D90002300C600220065082300C7002200660851
:101DA0002300C800220067082300C9002100C701E2
:101DB000C801C901CA012200E401E501E601E70109
:101DC0002100B801B80A111608008C302000A700C5
:101DD0000030A8000C30A9000030AA000C30AB0085
:101DE0000130AC00210066082000AD008831C6201B
:101DF0008E318C302000A7000030A8000C30A900E4
:101E00000130AA00210066082000AB00CC309431DC
:101E1000AF248E318C302000A7000030A8000C3099
:101E2000A9000130AA00210066082000AB00443060
:101E30009431AF248E3121302000EB007830EA005D
:101E40009830890B212FEA0B212FEB0B212F00005B
:101E50008C302000A7000030A8000C30A900003012
:101E6000AA000C30AB000130AC0021006608200055
:101E7000AD008831C6208E318C302000A7000030A4
:101E8000A8000C30A9000130AA002100660820003B
:101E9000AB00CC309431AF248E318C302000A700C1
:101EA0000030A8000C30A9000130AA00210066080B
:101EB0002000AB00BE309431AF248E312100A4014C
:101EC000A5018C302000B0000030B1000C30B20011
:101ED0000030B3000C30B4000130B50021006608BA
:101EE0002000B600953119258E312000EA00EB0163
:101EF0006A082100A40020006B082100A5008C3096
:101F00002000B0000030B1000C30B2000030B3004F
:101F10000C30B4000130B500210066082000B60086
:101F2000953119258E312000EA00EB016A08EB009B
:101F3000EA016A082100A40420006B082100A5041E
:101F40008C302000A7000030A8000C30A900003021
:101F5000AA000C30AB000130AC0021006608200064
:101F6000AD008831C6208E3160302100CD000130B7
:101F7000CE000030CF009830D0002508D2002408D1
:101F8000D1009431F4248E312000ED01EE012000C7
:101F90006D08603E8600013087000108031DD12FC7
:101FA000D22FD92F6D08603E8600013087004E3059
:101FB00081000130ED070030EE3D6E08803AEA0006
:101FC00080306A02031DE62F04306D02031CE92FE6
:101FD000EA2FC72F21006708303EED00220060087D
:101FE000C5006108C6006208C7006308C800E001B8
:101FF000E101E201E30102302100B80011160800FE
:102896007B342734683427343A3427344E344E3464
:1028A6004E344E3427342C342734743427343A3497
:1028B60027344E344E344E344E3427347D34220081
:1028C6008C018D018E01FF3021008C0080308D003F
:1028D600D9308E0023008D018C01240090018D01DA
:1028E60022009D0120008C018D018E010800200030
:1028F6002408A500200886002108870025088104F1
:1029060022088600230887000108240503198C2C59
:102916008D2C902CA601A60A912CA601260808004B
:102926002000E7006408E9006308E800A22C68308C
:10293600D2006508D30067088A311D229431200031
:1029460068088400690885001200031DAB2CAC2CB6
:102956009A2CE301E40108002000AD00AE0128082E
:10296600A1002708A0002A08A3002908A2002B0816
:10297600A4002D08013988316D2094310310200000
:10298600AD0C0130AC002C08AE0708302E02031C3B
:10299600CD2CCE2CB22C08002000AB00AD01AE0130
:1029A600E52C2C08A900AA012908A0002A08A100E4
:1029B6002808A20088311620943101302000AD0786
:1029C6000030AE3D2D082B07A900290886000130EE
:1029D60087000108AC002C08031DF22CF32CD42C24
:1029E6000800D1302100D5004E08D7004D08D6008A
:1029F600D801D901DE01DF0150082000E4002100E2
:102A06004F082000E300D530E500D63094319324FA
:102A160094310230D63E86008701403F21004D07A3
:102A26008400413F4E3D8500800108002000B8012A
:102A3600B9010310B80C3108A8003008A700330804
:102A4600AA003208A9003508AC003408AB003608E5
:102A5600AD0096313D269531003A0319332D342DBC
:102A6600362D2000B81701302000B7003708B90707
:102A760008303902031C402D412D1C2D3808080052
:102A86004E3400347B342734773427343A342734B1
:102A96004E344E344E344E344E344E344E344E3420
:102AA60027347D347B3427346C3427343A34273446
:102AB6004E344E344E344E344E3427347D347B34CB
:102AC6002734543427343A3427344E344E344E3473
:102AD6004E3427347D347D08031D722D732D842DCD
:102AE6007D08F300F4017308700786007408713DD1
:102AF6008700010823009A000130F3007308FD07E0
:102B06009B2D7D080319882D892D902D72087D0235
:102B160003188E2D8F2D902D732D72087D02031CA8
:102B2600952D962D9B2DFD0121003B08013EBB00F6
:102B36000800703021009900980122009601E030CB
:102B46008B00083023009F0044309B0090309D008E
:102B560024309E002100911630302000980001306C
:102B66009C002100911424009401083095009601E0
:102B76004F309200951268302000A000E430890B97
:102B8600C22DA00BC22D0000240095162100911124
:102B960008002000B700B11BD12DD22DD72D31084A
:102BA600B6003008B500D92DB501B601B301B401A0
:102BB600EB2D20302000A0000030A1003708A20035
:102BC60088311620953101302000B3070030B43D1E
:102BD6003408803AB2003608803A3202031DF52DD9
:102BE60035083302031CF82DF92DDC2D200037089B
:102BF600A8002F089431CF2495310800F400222E26
:102C06007408240091002100AE01AE0A3C2E700823
:102C16002400910002302100AE003C2E71082400F1
:102C2600910003302100AE003C2E0430AE0024009B
:102C360016153C2EAE019111B701B70A3C2E2100A4
:102C46002E08F200F3017308003A03192B2E3C2ECE
:102C56007208003A0319032E013A03190A2E033AA1
:102C66000319112E013A0319182E073A03191D2EBE
:102C76003C2E080020002D09AE002B0886002C08EB
:102C860087002E0881052D09AE0027088600280832
:102C960087002E0881051030890B4F2E20002D0944
:102CA600AE002B0886002C0887002E0881052D080B
:102CB600AE0027088600280887002E0881041830F1
:102CC600890B632E20002808A1002708A0002A08E7
:102CD600A3002908A2002D08A40094317A24963175
:102CE6002000AF009230890B762E003220002F088C
:102CF60008002000A2002008031D822E832EA02E8D
:102D06002209A100210821008C0520002209A1002A
:102D160021088C05BC302000A1000130890B912EC2
:102D2600A10B912E003220002208A10021082100CB
:102D36008C045030890B9D2EBC2E2209A10021083F
:102D460021008E0520002209A10021088E05BC3035
:102D56002000A1000130890BAE2EA10BAE2E003251
:102D660020002208A100210821008E045030890B82
:102D7600BA2E0800F500E52E750824009100210002
:102D8600AF01AF0A022F7008240091000230210023
:102D9600AF00022F71082400910003302100AF001C
:102DA600022F72082400910004302100AF00022F88
:102DB6000530AF0024001615022FAF019111B7019F
:102DC600B70A022F21002F08F300F4017408003A15
:102DD6000319EE2E022F7308003A0319BF2E013A8B
:102DE6000319C62E033A0319CD2E013A0319D42E20
:102DF600073A0319DB2E013A0319E02E022F0800C9
:102E06002000A400A3012408A100210821008C04AD
:102E16002000A5012008031D112F122F352F0C08A5
:102E260024050319172F182F122F9A011C150C08A9
:102E36002405031D1F2F202F1A2F1C1151301A0293
:102E4600031C262F272F4B2F0130A1002508073CF6
:102E5600890A2E2FA135890B2D2F2108A2002208C1
:102E6600A3044B2F0E08240503193A2F3B2F352FA9
:102E76009A011C150E082405031D422F432F3D2FD2
:102E86001C1151301A02031C492F4A2F4B2F272F92
:102E96000130A1002108A50708302502031C542F84
:102EA600552F0D2F230808002000AB002608A00090
:102EB6002B0896317C26973120002608A00028088A
:102EC600A1002B089731AB2797312100A8002808CD
:102ED600031D6E2F6F2F712F1116AA2F20002908A0
:102EE6008600013087002608A0002B0897310327AB
:102EF600973181002000290A8600013087002608C4
:102F0600A0002B089731032797318100200029085C
:102F1600023E8600013087002608A0002B08973164
:102F260003279731810020002908033E86000130DF
:102F360087002608A0002B089731032797318100C8
:102F460020002A0A860087012708303E81000800F3
:102F56002000A200A1019A011C152008031DB42F10
:102F6600B52FDC2F0C082205031DBA2FBB2FC02F4F
:102F760021080319BF2FC02FB52F21080319C42F0D
:102F8600C52FC72F0030FF2F9A010C082205031901
:102F9600CD2FCE2FD32F21080319D22FD32FC82FF1
:102FA60021080319D72FD82FD92FC52F1C1101306F
:102FB600FF2F0E082205031DE12FE22FE72F210820
:102FC6000319E62FE72FDC2F21080319EB2FEC2F2F
:102FD600ED2FC52F9A010E0822050319F32FF42FA2
:102FE600F92F21080319F82FF92FEE2F21080319BD
:102FF600FD2FFE2FD92FC52F080025347534003438
:020000040001F9
:08000000FF3FFF3FFF3FFF3F00
:04000E00FC39FF3F7B
:00000001FF
